:020000040800F2
:10000000D804002005010008092D00088B2A0008EB
:10001000052D0008A50600081D340008000000009A
:10002000000000000000000000000000392D000862
:10003000A9060008000000000D2D00083B2D000857
:100040001F0100081F0100081F0100081F01000810
:100050001F0100081F0100081F0100081F01000800
:100060001F0100081F0100081F0100081F010008F0
:100070001F0100081F0100081F0100081F010008E0
:100080001F0100081F010008BD0500081F0100082E
:100090001F0100081F0100081F0100081F010008C0
:1000A0001F0100081F0100081F010008BD2D0008E6
:1000B0001F0100081F010008000000001F010008C8
:1000C0001F01000800000000000000001F010008E0
:1000D000000000000D3400081F01000800000000AF
:1000E0001F0100081F0100081F010008DFF810D0E1
:1000F00000F042FA00480047613B0008AFF300807F
:10010000D80400200648804706480047FEE7FEE77F
:10011000FEE7FEE7FEE7FEE7FEE7FEE7FEE7FEE7B7
:10012000B92D0008ED000008202A04DB203A21FA4E
:1001300002F00021704721FA02F3D040C2F1200200
:100140009140084319467047D2B201E000F8012BF4
:10015000491EFBD270470022F6E710B513460A4647
:1001600004461946FFF7F0FF204610BDF0B480EAC0
:100170000102D40F4200B2EB410F02D20246084600
:1001800011464A0042D0C30DDDB2C1F3C752AD1AC9
:10019000202D35DAC1F3160141F4000204B15242B8
:1001A000C5F1200602FA06F12A411044B3EBD05FF4
:1001B00023D0C4B1012DA0EBC35009DCF0BC4FF03B
:1001C000004202EAC352DBB200F5000000F049B978
:1001D000400000F1807000EBC350A0F1807040EA55
:1001E000D170490009E0490841EAC071A0EBC35051
:1001F00000F50000400800EBC350F0BC00F028B947
:100200006142012202EB4101001BF6E7F0BC70479E
:1002100081F00041AAE780F00040A7E780EA0102F0
:1002200010B502F00043400022D04A001FD0010E5A
:1002300001EB1261C0F35600C2F3560240F4000015
:1002400042F40002A0FB022000047F39140400D015
:10025000401C50EA124001D44000491EC2B20C06B4
:1002600004EBD010401C4008802A02D003E000209C
:1002700010BD20F00100002900DA0020184310BD55
:100280002DE9FE4F81EA030404F0004421F000410F
:1002900000944FF0000B23F0004350EA01045ED0BD
:1002A00052EA03045BD0C3F30A54C1F30A552C4449
:1002B000A4F2F3340194A0FB0254C1F3130141F4FE
:1002C0008011C3F3130343F4801301FB024400FBCA
:1002D000034E840A970A44EA815447EA8357A4FBF1
:1002E000076802958D0A05FB07854FEA932C04FBEE
:1002F0000C542705029D4FEA065847EA1637B5EB1E
:1003000008056EEB070C870E920E47EA811742EA4A
:100310008312A7FB0201B6EB0B0164EB00042B0D6B
:1003200043EA0C335E1844EB1C50DA465146E7FBB7
:100330000201C5F313044FEA0B3343EA14534FEAA7
:100340000432019C43EA0603A4F10C040294009CCD
:10035000CDE900B400F0C2F803B0BDE8F08F002092
:100360000146F9E7C10F80EAE0700844CA07962306
:10037000002100F076B896230022114600F071B8F3
:1003800000F0004220F00040C10DC0F3160040F420
:1003900000007F2901DA00207047962903DCC1F1B3
:1003A0009601C84001E096398840002AF4D04042C6
:1003B000704700F0004230F000400AD0C10D01F556
:1003C0006071C0F3160042EA0151C20840071143B0
:1003D000704700200146704701F0004330B421F01F
:1003E000004150EA010206D00A0DA2F56072C1F385
:1003F0001301002A02DC30BC00207047440F44EA9D
:10040000C104C100E01830BC00EBC25000F020B8BD
:10041000002801DBC0F10040002901DBC1F10041EF
:100420008842704730B50B46014600202022012447
:1004300009E021FA02F59D4205D303FA02F5491BB2
:1004400004FA02F52844151EA2F10102F1DC30BDC8
:100450000029A8BF7047401C490008BF20F00100D8
:10046000704710B4B0FA80FC00FA0CF050EA0104B6
:1004700004BF10BC704749B1CCF1200421FA04F448
:1004800011FA0CF118BF012121430843A3EB0C0121
:10049000CB1D4FEA00614FEA102042BF002010BC84
:1004A000704700EBC35010440029A4BF10BC704734
:1004B000401C490008BF20F0010010BC704710B577
:1004C000141E73F1000408DA401C41F10001921877
:1004D0005B411A4301D120F0010010BD2DE9F04D20
:1004E00092469B4611B1B1FA81F202E0B0FA80F275
:1004F0002032904600F052F804460F4640EA0A00C7
:1005000041EA0B0153465A46084313D0114653EAB9
:10051000010019D0C8F140025046FFF705FE05461C
:100520000E4650465946424600F038F8084305D07A
:10053000012004E020463946BDE8F08D0020054347
:1005400046EAE0762C4337430A986305E40AA0EBB9
:1005500008000022FD0A44EA47540A3002D5002070
:100560000146E9E7010510196941DDE9084500196F
:100570006941BDE8F04DA2E7064C074D06E0E06892
:1005800040F0010394E8070098471034AC42F6D3DA
:10059000FFF7B0FD703E0008903E0008202A04DB03
:1005A000203A00FA02F1002070479140C2F1200386
:1005B00020FA03F3194390407047000010B5024839
:1005C00000F07AF910BD00001C00002070B5044650
:1005D00000252068806800F00100F0B12068806884
:1005E00020F001002168886000F07CFD05460EE0E7
:1005F00000F078FD401B022809D9A06A40F01000E5
:10060000A062E06A40F00100E062012070BD206855
:10061000806800F001000028EAD10020F6E7000021
:1006200038B504460025002000902068806800F05E
:10063000010080BB2068806840F00100216888606C
:10064000164800681649B0FBF1F0009002E00098EF
:10065000401E009000980028F9D100F043FD0546A7
:1006600013E000F03FFD401B02280ED9A06A40F0C5
:100670001000A062E06A40F00100E06200BF0020CC
:1006800084F8240000BF012038BD2068806800F095
:1006900001000028E5D00020F6E700001800002047
:1006A00040420F0000BFFEE7704700E0401E0028F8
:1006B000FCD1704772B600BFFEE7704738B50246FE
:1006C00000230020009000BF92F82400012801D1EF
:1006D000022038BD012082F8240000BF48680728A6
:1006E00012D21068406B0C79641E04EB84051F2441
:1006F000AC40A0430D796D1E05EB85050C68AC4040
:1007000020431468606327E048680D2812D21068FF
:10071000006B0C79E41F04EB84051F24AC40A0435C
:100720000D79ED1F05EB85050C68AC40204314687E
:10073000206311E01068C06A0C790D3C04EB84055D
:100740001F24AC40A0430D790D3D05EB85050C68D9
:10075000AC4020431468E06208680A2812D310688D
:10076000C0680C780A3C04EB44050724AC40A04365
:100770000D780A3D05EB45058C68AC4020431468B4
:10078000E0600FE0106800690C7804EB4405072472
:10079000AC40A0430D7805EB45058C68AC40204388
:1007A000146820610868102802D00868112827D131
:1007B000174C1068A0421ED11068806800F4000039
:1007C000F0B91068806840F400001468A060086800
:1007D000102815D10F4800680F4CB0FBF4F000EB67
:1007E00080004000009002E00098401E00900098B9
:1007F0000028F9D104E0906A40F0200090620123C3
:1008000000BF002082F8240000BF184661E7000006
:10081000002401401800002040420F002DE9F04163
:1008200080461C4800F044F80446FFF7A4FD1A492E
:10083000086008460068FFF7BCFD0646174A184BDB
:10084000FFF71EFD0446FFF7C7FD13490860154872
:10085000016811480068FFF7DBFD04D2042112484B
:1008600001F0B0FE03E004210F4801F00FFF0F4834
:10087000016809480068FFF7CBFD04D20C210A4843
:1008800001F03AFD03E00C21074801F099FDBDE8B5
:10089000F08100001C00002000000020C3F5285C4F
:1008A0008FC2B53F040000204C000020080000204B
:1008B00001460868C06C704710B50446206840685F
:1008C00000F0200020282FD12068006800F00200EE
:1008D000022829D1A06A00F0100018B9A06A40F4DB
:1008E0000070A0622068806800F46020B0F5602F7E
:1008F00013D1207B88B92068406820F0200021684F
:100900004860A06A20F48070A062A06A00F4805061
:1009100018B9A06A40F00100A0622046FFF77EFFF0
:100920006FF01200216808602068406800F08000C5
:1009300080283BD12068006800F00400042835D1ED
:10094000A06A00F0100018B9A06A40F40050A0623C
:100950002068806800F4E040B0F5E04F0DD02068DA
:10096000406800F48060D0B92068806800F460209E
:10097000B0F5602F13D1207B88B92068406820F043
:10098000800021684860A06A20F48050A062A06ABC
:1009900000F4807018B9A06A40F00100A0622046FF
:1009A000FFF78BFE6FF00C0021680860206840683C
:1009B00000F0400040280FD12068006800F00100DE
:1009C00050B1A06A40F48030A062204600F0A8F840
:1009D0006FF001002168086010BD00002DE9F041B2
:1009E0000446002700250026A84614B90120BDE8CA
:1009F000F081A06810B1207D00B100BFA06A30B9BD
:100A00000020E06284F82400204600F08BF82046A5
:100A1000FFF7DCFD0746A06A00F01000002873D144
:100A2000002F71D1A06A20F4885040F00200A0622B
:100A3000E16960680843217B40EA41000643A06801
:100A4000B0F5807F02D0A068012802D14FF48070F9
:100A500000E000200543207D012811D1207B38B91A
:100A6000A069401E4FF4006141EA4030054307E0B1
:100A7000A06A40F02000A062E06A40F00100E0625D
:100A80002068406820F46940284321684860206855
:100A9000806821490840304321688860A068B0F52B
:100AA000807F02D0A068012802D14FF4807000E05E
:100AB0000020B0F5807F03D1208A401E4FEA005805
:100AC0002068C06A20F4700040EA08002168C8620B
:100AD0002068806811490840B04208D10020E062D7
:100AE000A06A20F0020040F00100A06211E0A06ABC
:100AF00020F0020040F01000A062E06A40F0010027
:100B0000E062012705E0FFE7A06A40F01000A06264
:100B1000012738466BE70000FDF7E1FFFE0E1FFFDF
:100B20007047000010B586B0044600200290039084
:100B3000049005901849206888422AD100BF1748C0
:100B4000806940F40070154988610846806900F4A6
:100B50000070019000BF00BF00BF0846806940F0F0
:100B6000040088610846806900F00400019000BF1D
:100B700000BF012002900320039002A9084800F062
:100B80001BF900221146122000F032FB122000F067
:100B90001FFB06B010BD0000002401400010024001
:100BA0000008014070B50446002500BF94F82400F9
:100BB000012801D1022070BD012084F8240000BF6B
:100BC0002046FFF72DFD0546002D7DD1A06A40F699
:100BD0000161884340F48070A0623F4920688842E8
:100BE00008D13E48006800F4702008B9012002E0F6
:100BF000002000E0012078B1A06A20F48010A062FB
:100C00002068406800F4806000B3A06A20F40050BF
:100C100040F48050A06219E0A06A40F48010A06205
:100C20002E49091F2068884203D02B49206888423A
:100C300004D12A48006800F4806000E0002028B158
:100C4000A06A20F4005040F48050A062A06A00F432
:100C5000805020B1E06A20F00600E06201E0002050
:100C6000E06200BF002084F8240000BFC01E21689D
:100C700008602068406840F02000216848602068D3
:100C8000806800F46020B0F5602F16D1124920680A
:100C9000884208D11148006800F4702008B901208A
:100CA00002E0002000E0012038B12068806840F4B4
:100CB000A000216888600CE006E02068806840F4AD
:100CC00080102168886004E000BF002084F82400C0
:100CD00000BF28466FE700000028014004240140BF
:100CE00070B50446002594F82100022803D00420A2
:100CF000A063012548E02068006820F00E0021680C
:100D000008602068006820F00100216808601F4921
:100D10002068884201D1012026E01C491431206856
:100D2000884201D110201FE01849283120688842EC
:100D300001D1801518E015493C312068884201D165
:100D4000801411E0114950312068884202D14FF4DB
:100D5000803009E00D4964312068884202D14FF4A7
:100D6000801001E04FF08070084908394860012088
:100D700084F8210000BF002084F8200000BF606BD1
:100D800010B12046616B8847284670BD08000240BC
:100D900070B5044600F0A6F906462546681C10B159
:100DA00004480078054400BF00F09CF9801BA8426D
:100DB000FAD370BD140000202DE9F8470346002245
:100DC000944666E14FF0010808FA02F4D1F8008079
:100DD00008EA0400A0427DD1DFF8CCA2D1F804805B
:100DE000A8EB0A09D0453AD014DCB8F1030F50D073
:100DF00009DCB8F1000F31D0B8F1010F1CD0B8F107
:100E0000020F49D120E0B8F1110F18D0B8F1120F3C
:100E100042D11EE0B9F5881F25D006DCB9F5803F28
:100E200020D0B9F5801F37D11AE0B9F5001F18D0CE
:100E3000B9F5041F30D117E0D1F80CC02DE0D1F87E
:100E40000C8008F1040C28E0D1F80C8008F1080CA3
:100E500023E0D1F80C8008F10C0C1EE000BF00BFAD
:100E600000BF00BF00BF00BFD1F80880B8F1000F7D
:100E700002D14FF0040C0BE0D1F80880B8F1010F5B
:100E800003D14FF0080C1C6102E04FF0080C5C61CC
:100E900003E04FF0000C00E000BF00BFFF2801D8C6
:100EA000984601E003F104084646FF2802D84FEABD
:100EB000820803E0A2F108084FEA88084746D6F8FE
:100EC00000804FF00F0909FA07F928EA09080CFA1F
:100ED00007F900E085E048EA0908C6F80080D1F883
:100EE000048008F08058B8F1805F7AD100BFDFF845
:100EF000BC81D8F8188048F00108DFF8B091C9F833
:100F00001880C846D8F8188008F00108CDF800808D
:100F100000BF00BF4FEAB9384FEA920958F829508C
:100F20004FEA82784FEA18794FF00F0808FA09F86B
:100F300025EA0805DFF87881434502D14FF0000823
:100F40000FE0DFF87081434502D14FF0010808E05F
:100F5000DFF86481434502D14FF0020801E04FF011
:100F600003084FEA82794FEA197908FA09F848EA42
:100F70000505DFF848814FEA920948F82950D1F871
:100F8000048008F48038B8F5803F0AD1DFF830815A
:100F9000D8F8008048EA0008DFF82491C9F80080FA
:100FA00009E0DFF81C81D8F8008028EA0008DFF8A3
:100FB0001091C9F80080D1F8048008F40038B8F521
:100FC000003F0FD1DFF8F88008F10408D8F800805E
:100FD00048EA0008DFF8E89009F10409C9F8008040
:100FE0000EE055E0DFF8D88008F10408D8F800805A
:100FF00028EA0008DFF8C89009F10409C9F8008060
:10100000D1F8048008F48018B8F5801F0ED1DFF8FD
:10101000B08008F10808D8F8008048EA0008DFF836
:10102000A09009F10809C9F800800DE0DFF8908070
:1010300008F10808D8F8008028EA0008DFF8809056
:1010400009F10809C9F80080D1F8048008F40018F3
:10105000B8F5001F0ED1DFF8688008F10C08D8F849
:10106000008048EA0008DFF8589009F10C09C9F837
:1010700000800DE0DFF8488008F10C08D8F8008007
:1010800028EA0008DFF8389009F10C09C9F8008057
:10109000521CD1F8008028FA02F8B8F1000F7FF452
:1010A00091AEBDE8F887000000001110001002406A
:1010B00000080140000C0140001001400800014000
:1010C0000004014010B5C26821EA020302EA0104EB
:1010D00043EA0443036110BD0AB1016101E00B045E
:1010E0000361704701480068704700000C00002051
:1010F00003480068034909780844014908607047BB
:101100000C0000201400002010B50848006840F0D2
:10111000100006490860032000F0A8F8002000F045
:1011200007F800F02BF8002010BD0000002002405E
:1011300070B504460E4800784FF47A71B1FBF0F0B8
:101140000C490968B1FBF0F5284600F0A3FC08B192
:10115000012070BD102C07D200222146501E00F045
:1011600047F80548046001E00120F2E70020F0E7BD
:1011700014000020180000201000002008B500BF57
:101180001148806940F001000F4988610846806974
:1011900000F00100009000BF00BF00BF0846C0691A
:1011A00040F08050C8610846C06900F0805000904F
:1011B00000BF00BF00BF0549486820F0E06040F074
:1011C0008060486000BF08BD001002400000014080
:1011D00001460846002809DB00F01F0301229A405F
:1011E00043099B0003F1E023C3F8002100BF7047CF
:1011F0002DE9F05F80460D461646002702F024F9DF
:10120000074639462A46334601F00700C0F1070A6F
:10121000BAF1040F02D94FF0040A01E0C0F1070A45
:10122000D14600F1040ABAF1070F02D24FF0000ACA
:1012300001E0A0F1030AD4464FF0010A0AFA09FAC4
:10124000AAF1010A0AEA020A0AFA0CFA4FF0010BA3
:101250000BFA0CFBABF1010B0BEA030B4AEA0B0494
:101260002146404602F0F8F8BDE8F09F00BF00F0CC
:101270000702064B19684FF6FF031940044B0B4356
:1012800043EA0221014B196000BF70470CED00E0FA
:101290000000FA05F8B5044600260025207800F085
:1012A000010000286BD000274348C06900F080503F
:1012B00070B900BF4048C06940F080503E49C861E5
:1012C0000846C06900F08050009000BF00BF0127B1
:1012D0003A48006800F48070B0B93848006840F4BB
:1012E000807036490860FFF7FDFE064606E0FFF70E
:1012F000F9FE801B642801D90320F8BD2F4800683F
:1013000000F480700028F2D02B48006A00F4407589
:101310002DB3A08800F44070A84220D02648006A6F
:1013200020F440750120264908600020086022480A
:10133000056205F0010090B1FFF7D4FE064608E013
:10134000FFF7D0FE801B41F28831884201D903208B
:10135000D3E71948006A00F002000028F0D01648D0
:10136000006A20F440706168084313490862012F45
:1013700004D10846C06920F08050C86100BF2078C1
:1013800000F00200022807D10B48406820F44040DA
:10139000A168084308494860207800F01000102830
:1013A00007D10548406820F48000E16808430249FD
:1013B00048600020A1E700000010024000700040DB
:1013C0004004424270B504460D460CB9012070BD80
:1013D0005A48006800F00700A8420ED2574800683B
:1013E00020F007002843554908600846006800F0CF
:1013F0000700A84201D00120E9E7207800F00200B0
:1014000002281DD1207800F00400042805D14C48A2
:10141000406840F4E0604A494860207800F00800E5
:10142000082805D14648406840F460504449486067
:101430004348406820F0F000A168084340494860F4
:10144000207800F0010078B36068012806D13C489C
:10145000006800F4003090B90120B8E76068022805
:1014600006D13748006800F0007040B90120AEE7AF
:101470003348006800F0020008B90120A7E73048AF
:10148000406820F00300616808432D494860FFF779
:1014900029FE064609E0FFF725FE801B41F2883150
:1014A000884202D9032092E707E02548406800F00F
:1014B0000C006168B0EB810FEDD12048006800F0AE
:1014C0000700A8420ED91D48006820F007002843F5
:1014D0001A4908600846006800F00700A84201D0D9
:1014E000012074E7207800F00400042807D1144894
:1014F000406820F4E060E1680843114948602078C2
:1015000000F00800082808D10D48406820F4605019
:10151000216940EAC1000A49486000F03FF80849E3
:101520004968C1F30311074A515CC8400649086085
:1015300006480068FFF7FCFD002048E70020024055
:1015400000100240583E0008180000201000002043
:1015500001480068704700001800002000B5FFF740
:10156000F7FF04494968C1F30221034A515CC840AE
:1015700000BD000000100240683E000800B5FFF703
:10158000E7FF04494968C1F3C221034A515CC840DE
:1015900000BD000000100240683E0008F0B585B0B4
:1015A0000FF26C0C9CE8E01001A8A0E8E0101CA56C
:1015B0002D68009500210022002300240020194DF1
:1015C000696801F00C05F5B1042D02D0082D19D180
:1015D00001E0154819E001ADC1F38346AC5D01F4AB
:1015E000803555B10F4D6D68C5F340451DF8052098
:1015F0000D4D6543B5FBF2F302E00C4D04FB05F322
:10160000184602E000BF084800BF00BF05B0F0BDAB
:1016100002030405060708090A0B0C0D0E0F101033
:10162000010200000010024000127A0000093D0093
:10163000F8B504460CB90120F8BD207800F001008F
:10164000002878D0F848406800F00C0004280CD03E
:10165000F548406800F00C00082811D1F2484068B5
:1016600000F48030B0F5803F0AD1EF48006800F404
:10167000003000285FD0606800285CD10120DBE7E3
:1016800000BF6068B0F5803F06D1E748006840F4CD
:101690008030E549086028E0606858B9E248006891
:1016A00020F48030E04908600846006820F480207B
:1016B00008601AE06068B0F5A02F0BD1DA48006826
:1016C00040F48020D84908600846006840F4803023
:1016D00008600AE0D448006820F48030D2490860ED
:1016E0000846006820F48020086000BF606888B168
:1016F000FFF7F8FC054606E0FFF7F4FC401B642802
:1017000001D9032098E7C848006800F40030002899
:10171000F2D010E0FFF7E6FC054606E0FFF7E2FC3A
:10172000401B642801D9032086E7BF48006800F405
:1017300000300028F2D1207800F00200022857D1B2
:10174000B948406800F00C0050B1B748406800F05C
:101750000C00082818D1B448406800F4803098B9CB
:10176000B148006800F0020020B12069012801D0D2
:10177000012061E7AC48006820F0F800616940EAA8
:10178000C100A949086033E02069E8B10120A749F8
:101790000860FFF7A7FC054606E0FFF7A3FC401B27
:1017A000022801D9032047E79F48006800F00200A3
:1017B0000028F2D09C48006820F0F800616940EAF7
:1017C000C1009949086013E0002098490860FFF7BC
:1017D00089FC054606E0FFF785FC401B022801D97D
:1017E000032029E79048006800F002000028F2D1A9
:1017F000207800F0080008282DD1A069B8B1012098
:101800008B490860FFF76EFC054606E0FFF76AFCAF
:10181000401B022801D903200EE78348406A00F0EC
:1018200002000028F2D0012001F072FA13E000203B
:101830007F490860FFF756FC054606E0FFF752FCBB
:10184000401B022801D90320F6E67748406A00F0E1
:1018500002000028F2D1207800F00400042873D19F
:1018600000277148C06900F0805070B900BF6E4811
:10187000C06940F080506C49C8610846C06900F0FA
:101880008050009000BF00BF01276A48006800F444
:101890008070B0B96748006840F48070654908609E
:1018A000FFF720FC054606E0FFF71CFC401B642800
:1018B00001D90320C0E65F48006800F4807000286A
:1018C000F2D000BFE068012806D15748006A40F016
:1018D00001005549086227E0E06858B95248006A9B
:1018E00020F00100504908620846006A20F0040018
:1018F000086219E0E06805280BD14B48006A40F007
:101900000400494908620846006A40F00100086284
:101910000AE04548006A20F0010043490862084691
:10192000006A20F00400086200BFE068A0B1FFF781
:10193000D9FB054609E0FFF7D5FB401B41F2883192
:10194000884202D9032077E622E03748006A00F097
:1019500002000028EFD012E0FFF7C4FB054608E0C4
:10196000FFF7C0FB401B41F28831884201D90320B8
:1019700062E62D48006A00F002000028F0D1012F35
:1019800005D12948C06920F080502749C86100BFAF
:10199000E069C8B32448406800F00C00082860D013
:1019A000E069022848D1002020490866FFF79AFB29
:1019B000054606E0FFF796FB401B022801D90320ED
:1019C0003AE61948006800F000700028F2D1206A59
:1019D000B0F5803F07D11448406820F40030A1687A
:1019E000084311494860D4E9080108430E49496891
:1019F00021F4741108430C49486001200B49086622
:101A0000FFF770FB054607E03DE0FFF76BFB401B6F
:101A1000022801D903200FE60348006800F0007097
:101A20000028F2D02FE000000010024000004242E7
:101A30008004424200700040002014490866FFF70D
:101A400051FB054606E0FFF74DFB401B022801D97C
:101A50000320F1E50E48006800F000700028F2D184
:101A600011E0E069012800D1E6E50948466806F47E
:101A70008031206A814204D106F47011606A81428B
:101A800001D00120D8E50020D6E500000000424248
:101A90000010024070B504462546681EB0F1807FF4
:101AA00001D301200FE0681E4FF0E02148610F21B3
:101AB0004FF0FF3001F0D0FC00204FF0E0218861B2
:101AC00007200861002070BD7047704710B50346BD
:101AD000002200BF93F83C00012801D1022010BD74
:101AE000012083F83C0000BF22F0FF00CC6840EAF0
:101AF000040222F440708C6840EA040222F4806000
:101B00004C6840EA040222F400600C6840EA0402D7
:101B100022F480500C6940EA040222F400504C691F
:101B200040EA040222F48040CC6940EA04021868CA
:101B3000426400BF002083F83C0000BF00BFCEE736
:101B400030B502460B4600BF92F83C00012801D197
:101B5000022030BD012082F83C0000BF022082F844
:101B60003D00106844681068816824F070041868AB
:101B70000443106844600E4D1068A84207D01068F6
:101B8000B0F1804F03D00B4D1068A84205D121F071
:101B900080015868014310688160012082F83D008F
:101BA00000BF002082F83C0000BF00BFD1E700006A
:101BB000002C01400004004010B504460CB901207F
:101BC00010BD94F83D0028B9002084F83C00204660
:101BD00000F026F8022084F83D00211D206801F065
:101BE000F5F8012084F8460000BF84F83E0001218A
:101BF0003F200155402001554120015500BF00BF45
:101C0000012084F84200432001554420015545201D
:101C1000015500BF012084F83D000020D0E70000FE
:101C200010B586B004460020029003900490059001
:101C30001849206888422BD100BF1748806940F4BA
:101C40000060154988610846806900F400600190D1
:101C500000BF00BF00BF0846806940F004008861F3
:101C60000846806900F00400019000BF00BF88159D
:101C7000029000200390049002A90848FFF79CF806
:101C8000002211461B20FFF7B3FA1B20FFF7A0FA32
:101C900006B010BD002C01400010024000080140B9
:101CA0002DE9F04104460D4600BF94F83C000128A0
:101CB00002D10220BDE8F081012084F83C0000BF81
:101CC000022084F83D002068866826F0770626F416
:101CD0007F46206886602868502833D00CDC202896
:101CE00050D004DC00284BD0102851D149E03028D6
:101CF00049D040284CD139E060282DD0702807D039
:101D0000B0F5805F03D0B0F5005F41D10DE040E059
:101D1000D5E902136A68206801F09BF8206886689C
:101D200046F077062068866033E0D5E902136A68DA
:101D3000206801F08EF82068806840F480402168B7
:101D4000886026E0EA686968206801F053F950214C
:101D5000206801F089F81CE0EA686968206801F0F1
:101D60008BF96021206801F07FF812E0EA68696869
:101D7000206801F03FF94021206801F075F808E083
:101D800000BF00BF00BF2968206801F06DF800E0C7
:101D900000BF00BF012084F83D0000BF002084F890
:101DA0003C0000BF00BF85E770472DE9F0410446C5
:101DB0000D46164600BF94F83C00012802D10220CF
:101DC000BDE8F081012084F83C0000BF96B9EB68C3
:101DD000D5E90012206801F021F92068806920F01F
:101DE0000C002168886120688069A968084321681F
:101DF00088613DE0042E13D1EB68D5E9001220681C
:101E000001F04EF92068806920F440602168886103
:101E100020688069A96840EA01202168886127E07C
:101E2000082E12D1EB68D5E90012206801F055F9AF
:101E30002068C06920F00C002168C8612068C06972
:101E4000A96808432168C86112E0EB68D5E900126F
:101E5000206801F05EF92068C06920F440602168C4
:101E6000C8612068C069A96840EA01202168C8618A
:101E700000BF002084F83C0000BF00BFA0E710B501
:101E800004460CB9012010BD94F83D0028B900208B
:101E900084F83C00204600F025F8022084F83D003C
:101EA000211D206800F092FF012084F8460000BF49
:101EB00084F83E0001213F2001554020015541207A
:101EC000015500BF00BF012084F8420043200155A6
:101ED000442001554520015500BF012084F83D00F4
:101EE0000020D0E7704700002DE9F04104460D4680
:101EF00015B994F83E000BE0042D02D13F20005D9F
:101F000006E0082D02D14020005D01E04120005D87
:101F1000074615B994F842000BE0042D02D1432086
:101F2000005D06E0082D02D14420005D01E045205F
:101F3000005D8046012F02D1B8F1010F02D00120CF
:101F4000BDE8F0811DB9022084F83E000EE0042DAA
:101F500003D102213F20015508E0082D03D10221C1
:101F60004020015502E00221412001551DB9022007
:101F700084F842000EE0042D03D1022143200155D4
:101F800008E0082D03D102214420015502E002217E
:101F90004520015535B1042D0BD0082D10D00C2D46
:101FA0001CD114E02068C06840F002002168C860BD
:101FB00015E02068C06840F004002168C8600EE0A9
:101FC0002068C06840F008002168C86007E0206809
:101FD000C06840F010002168C86000E000BF00BF8A
:101FE00001222946206800F023FF1049206888421A
:101FF00007D02068B0F1804F03D00D492068884297
:102000000CD12068806800F00706062E0CD02068EE
:10201000006840F001002168086005E02068006861
:1020200040F0010021680860002089E7002C014091
:102030000004004010B5044620680069C0F3400069
:10204000D8B12068C068C0F34000B0B16FF00200A2
:1020500021680861012020772068806900F0030072
:1020600018B12046FFF7A0FE05E0204600F00EF96B
:10207000204600F0A5FA0020207720680069C0F310
:102080008000D8B12068C068C0F38000B0B16FF0A4
:10209000040021680861022020772068806900F42C
:1020A000407018B12046FFF77FFE05E0204600F0A3
:1020B000EDF8204600F084FA0020207720680069BF
:1020C000C0F3C000D8B12068C068C0F3C000B0B190
:1020D0006FF0080021680861042020772068C0693B
:1020E00000F0030018B12046FFF75EFE05E0204631
:1020F00000F0CCF8204600F063FA0020207720683A
:102100000069C0F30010D8B12068C068C0F30010A7
:10211000B0B16FF0100021680861082020772068B6
:10212000C06900F4407018B12046FFF73DFE05E09D
:10213000204600F0ABF8204600F042FA002020775D
:102140002068006900F0010058B12068C06800F004
:10215000010030B16FF0010021680861204600F0F5
:10216000E3FA20680069C0F3C01058B12068C06865
:10217000C0F3C01030B16FF08000216808612046C4
:10218000FFF7A2FC20680069C0F3801058B12068F6
:10219000C068C0F3801030B16FF040002168086162
:1021A000204600F0CBFA20680069C0F3401058B117
:1021B0002068C068C0F3401030B16FF02000216883
:1021C00008612046FFF781FC10BD000010B586B005
:1021D0000446002002900390049005900E49206868
:1021E000884217D100BF0D48806940F004000B49B8
:1021F00088610846806900F00400019000BF00BFBC
:102200004FF46060029002200390059002A90448F8
:10221000FEF7D2FD06B010BD002C014000100240B8
:102220000008014070B504460E46154600BF94F8FC
:102230003C00012801D1022070BD012084F83C003F
:1022400000BF35B1042D09D0082D0CD00C2D14D1B0
:102250000EE03146206800F011FE0FE031462068A4
:1022600000F03CFE0AE03146206800F06BFE05E01D
:102270003146206800F09AFE00E000BF00BF00BFBA
:10228000002084F83C0000BF00BFD5E7704710B5C0
:1022900004460CB9012010BD94F83D0028B9002077
:1022A00084F83C00204600F025F8022084F83D0028
:1022B000211D206800F08AFD012084F8460000BF3F
:1022C00084F83E0001213F20015540200155412066
:1022D000015500BF00BF012084F842004320015592
:1022E000442001554520015500BF012084F83D00E0
:1022F0000020D0E77047000070B504460D4615B9C0
:1023000094F83E000BE0042D02D13F20005D06E072
:10231000082D02D14020005D01E04120005D012830
:1023200001D0012070BD1DB9022084F83E000EE0EE
:10233000042D03D102213F20015508E0082D03D1CF
:1023400002214020015502E00221412001550122D5
:102350002946206800F06CFD17492068884201D1A9
:10236000012000E0002028B12068406C40F40040CB
:102370002168486410492068884207D02068B0F17D
:10238000804F03D00D49206888420CD120688068B6
:1023900000F00706062E0CD02068006840F001000F
:1023A0002168086005E02068006840F001002168AD
:1023B00008600020B6E70000002C01400004004047
:1023C00030B504460D4600222946206800F030FD55
:1023D00021492068884201D1012000E0002090B10D
:1023E00000BF2068006A41F21111084050B920680E
:1023F000006A8910084028B92068406C20F4004029
:102400002168486400BF00BF2068006A41F21111D2
:10241000084050B92068006A8910084028B920682F
:10242000006820F001002168086000BF1DB901208C
:1024300084F83E000EE0042D03D101213F20015518
:1024400008E0082D03D101214020015502E00121BF
:1024500041200155002030BD002C014070B50446DC
:102460000D46164600BF94F83C00012801D1022019
:1024700070BD012084F83C0000BF36B1042E1BD093
:10248000082E31D00C2E5ED145E02946206800F0A0
:10249000F5FC2068806940F00800216888612068A8
:1024A000806920F0040021688861206880692969BA
:1024B00008432168886147E02946206800F00EFD46
:1024C0002068806940F40060216888612068806924
:1024D00020F480602168886120688069296940EA69
:1024E0000120216888612FE02946206800F02AFD3C
:1024F0002068C06940F008002168C8612068C06990
:1025000020F004002168C8612068C0692969084377
:102510002168C86118E02946206800F047FD20685E
:10252000C06940F400602168C8612068C06920F477
:1025300080602168C8612068C069296940EA01207B
:102540002168C86100E000BF00BF00BF002084F820
:102550003C0000BF00BF8BE710B504460CB901205A
:1025600010BD94F83D0028B9002084F83C002046B6
:1025700000F025F8022084F83D00211D206800F0BD
:1025800025FC012084F8460000BF84F83E000121AC
:102590003F200155402001554120015500BF00BF9B
:1025A000012084F842004320015544200155452074
:1025B000015500BF012084F83D000020D0E770479E
:1025C0007047000070B504460D4615B994F83E00FA
:1025D0000BE0042D02D13F20005D06E0082D02D162
:1025E0004020005D01E04120005D012801D0012074
:1025F00070BD1DB9022084F83E000EE0042D03D109
:1026000002213F20015508E0082D03D1022140207E
:10261000015502E00221412001550122294620688E
:1026200000F006FC17492068884201D1012000E033
:10263000002028B12068406C40F4004021684864C4
:1026400010492068884207D02068B0F1804F03D03D
:102650000D49206888420CD12068806800F0070688
:10266000062E0CD02068006840F001002168086048
:1026700005E02068006840F0010021680860002043
:10268000B6E70000002C01400004004030B50446CD
:102690000D4600222946206800F0CAFB2149206827
:1026A000884201D1012000E0002090B100BF2068E5
:1026B000006A41F21111084050B92068006A89107F
:1026C000084028B92068406C20F400402168486424
:1026D00000BF00BF2068006A41F21111084050B9E4
:1026E0002068006A8910084028B92068006820F036
:1026F00001002168086000BF1DB9012084F83E0078
:102700000EE0042D03D101213F20015508E0082DE2
:1027100003D101214020015502E001214120015552
:10272000002030BD002C014010B5044602210248B3
:10273000FEF7C8FC10BD0000000C01407047704758
:102740002DE9F0470446206805682068C6682068BF
:1027500047694FF00008C14605F00F08B8F1000FB7
:102760000AD105F0200038B106F0200020B1204643
:1027700000F017FDBDE8F087B8F1000F71D007F049
:10278000010018B906F4907000286AD005F0010025
:1027900030B106F4807018B1E06B40F00100E063E6
:1027A00005F0040030B107F0010018B1E06B40F013
:1027B0000200E06305F0020030B107F0010018B13B
:1027C000E06B40F00400E06305F0080048B106F05B
:1027D000200010B907F0010018B1E06B40F00800CC
:1027E000E063E06B68B305F0200028B106F020003C
:1027F00010B1204600F0D5FC20684069C0F3801974
:10280000E06B00F0080010B9B9F1000F22D02046AB
:1028100000F0A7FC2068406900F04000B0B12068DB
:10282000406920F0400021684861606B50B1184851
:10283000616B4863606BFEF753FA10B1606B416BDC
:1028400088470CE02046FFF77AFF08E02046FFF7B4
:1028500076FF04E02046FFF772FF0020E06389E77F
:10286000FFE705F0800030B106F0800018B1204687
:1028700000F066FD7EE705F0400030B106F0400054
:1028800018B1204600F07DFC74E700BF72E700003D
:102890004F31000810B504460CB9012010BDA069E5
:1028A00000B100E000BF94F8390028B9002084F896
:1028B0003800204600F028F8242084F839002068E9
:1028C000C06820F400502168C860204600F0BAFCBF
:1028D0002068006920F49040216808612068406900
:1028E00020F02A00216848612068C06840F4005048
:1028F0002168C8600020E063202084F8390084F853
:102900003A000020CAE7000010B586B00446002057
:1029100002900390049005902249206888423ED19D
:1029200000BF2148806940F480401F498861084603
:10293000806900F48040019000BF00BF00BF0846DE
:10294000806940F0080088610846806900F008004E
:10295000019000BF00BF402002900220039003209E
:10296000059002A91148FEF727FA80200290002066
:102970000390049002A90D48FEF71EFA00BF0C490F
:10298000486840F0E06040F00400486000BF00226A
:1029900011462520FEF72CFC2520FEF719FC06B079
:1029A00010BD00000038014000100240000C014042
:1029B0000000014070472DE9F84F04460E461746C7
:1029C00099464FF0000A94F8390020285AD106B1F0
:1029D00017B90120BDE8F88F00BF94F8380001282E
:1029E00001D10220F6E7012084F8380000BF002062
:1029F000E063212084F83900FEF774FB8246A78447
:102A0000E784A068B0F5805F04D1206910B9002583
:102A1000B04602E035464FF0000800BF002084F8C1
:102A2000380000BF1BE05346002280212046CDF82D
:102A3000009000F0B5FC08B10320CBE745B9B8F829
:102A40000000C0F308002168486008F1020803E0B4
:102A50002878216848606D1CE08C401EE084E08C82
:102A60000028E0D15346002240212046CDF80090B6
:102A700000F096FC08B10320ACE7202084F8390070
:102A80000020A7E70220A5E7704700BFFEE700008F
:102A90000EB5002000900190029012481249086083
:102AA000002111488160017301754FF46021C161FB
:102AB00000200D49486001210B480161FDF78EFFA0
:102AC00008B1FDF7F7FD00200090012001900020E3
:102AD000029069460448FDF7F1FD08B1FDF7EAFDF3
:102AE0000EBD0000002401401C00002000B585B090
:102AF0000020019002900390049000BF1E4880695E
:102B000040F004001C4988610846806900F0040018
:102B1000009000BF00BF00BF0846806940F0080079
:102B200088610846806900F00800009000BF00BF7F
:102B30000022F6211148FEF7CFFA002206211048A4
:102B4000FEF7CAFAF62001900120029000200390BF
:102B50000220049001A90948FEF72EF906200190F1
:102B600001200290002003900220049001A9044853
:102B7000FEF722F905B000BD001002400008014038
:102B8000000C014000B599B00020159016901790E8
:102B90001890139014900F901090119012901C2187
:102BA00008A8FDF7D8FA20216846FDF7D4FA454871
:102BB000454908607C2048600021434881604FF609
:102BC000FF11C1600021016141618161FEF7F4FFE5
:102BD00008B1FDF76FFD4FF48050159015A93A48E4
:102BE000FFF75EF808B1FDF765FD3748FFF747F9D5
:102BF00008B1FDF75FFD3448FFF7AEFC08B1FDF703
:102C000059FD3148FFF743FB08B1FDF753FD0020A4
:102C10001390149013A92C48FEF792FF08B1FDF70A
:102C200049FD00200F90012010900020119012907B
:102C300000220FA92448FFF7B8F808B1FDF73AFDC4
:102C4000602008904AF2AA60099000200A900B9038
:102C50000C900D900E90042208A91B48FFF7FEFB74
:102C600008B1FDF727FD4AF2AA600990082208A9D9
:102C70001548FFF7F3FB08B1FDF71CFD3020089065
:102C80004AF2AA6009900C2208A90F48FFF7CAFA75
:102C900008B1FDF70FFD0020009001900290039015
:102CA00004904FF4005005900020079069460648B4
:102CB000FEF70CFF08B1FDF7FDFC0348FFF786FAAD
:102CC00019B000BD002C01404C00002010B50B488D
:102CD0000B4908604FF41650486000210848816095
:102CE000C16001610C21416100218161C161FFF777
:102CF000D1FD08B1FDF7DEFC10BD00000038014039
:102D00009400002000BFFEE700BFFEE77047000010
:102D100008B508490968C9084FF47A72B1FBF2F1A5
:102D20004143009100BF00BF00994A1E0092002954
:102D3000F9D108BD18000020704710B5FEF7D8F98A
:102D400010BD00B593B0282109A8FDF704FA14219D
:102D500004A8FDF700FA0020009001900290039073
:102D60000220099001200D9010200E90022010905A
:102D700000211191129109A8FEF75AFC08B1FDF744
:102D800099FC0F20049002200590002006900790E7
:102D90000890002104A8FEF715FB08B1FDF78AFC96
:102DA00002200090002002906846FEF773FA08B1F6
:102DB000FDF780FC13B000BD7047000010B502485D
:102DC000FFF738F910BD00004C00002010B5026874
:102DD000154B984205D0B0F1804F02D0134B98426A
:102DE00003D122F070024B681A430F4B984205D072
:102DF000B0F1804F02D00D4B984203D122F44072C3
:102E0000CB681A4322F080034C6943EA0402026053
:102E10008B68C3620B688362034B984201D10B69D4
:102E200003630123436110BD002C014000040040F6
:102E300030B501F01F05012404FA05F3046A9C4330
:102E40000462046A01F01F0502FA05F52C430462CE
:102E500030BD30B50C46816821F47F4142EA03253C
:102E600025432943816030BD0A46816821F0700105
:102E700042F00703194381607047000030B5056ACE
:102E800025F001050562026A4368846924F0700434
:102E900024F003040D682C4322F002028D682A43BB
:102EA0000D4DA84206D100BF22F00802CD682A438A
:102EB00022F00402084DA84207D123F4807323F4C2
:102EC00000734D692B438D692B43436084614D68CA
:102ED0004563026230BD0000002C014030B5056A38
:102EE00025F010050562026A4368846924F4E04411
:102EF00024F440740D6844EA052422F020028D6811
:102F000042EA05120E4DA84207D100BF22F080020E
:102F1000CD6842EA051222F04002094DA84209D1CB
:102F200023F4806323F400634D6943EA85038D69CC
:102F300043EA8503436084614D688563026230BD66
:102F4000002C014030B5056A25F480750562026ADF
:102F50004368C46924F0700424F003040D682C4312
:102F600022F400728D6842EA05220F4DA84207D173
:102F700000BF22F40062CD6842EA052222F480629A
:102F8000094DA84209D123F4805323F400534D691D
:102F900043EA05138D6943EA05134360C4614D6834
:102FA000C563026230BD0000002C014030B5056AE7
:102FB00025F480550562036A4468C26922F4E04240
:102FC00022F440720D6842EA052223F400538D6812
:102FD00043EA0533064DA84204D124F480444D69E8
:102FE00044EA85144460C2614D680564036230BDE3
:102FF000002C014030B50B461446026A056A25F0E4
:1030000001050562816921F0F00141EA041122F015
:103010000A021A438161026230BD000070B50C469D
:103020001546066A26F0010606628169026A104E9C
:10303000B04205D0B0F1804F02D00E4EB04201D167
:10304000012600E000261EB121F00301294301E022
:1030500041F0010121F0F001F02606EA03163143A8
:1030600022F00A0204F00A0632438161026270BD56
:10307000002C01400004004030B50B461446056AA0
:1030800025F0100505628169026A21F4704141EA68
:10309000043122F0A00242EA03128161026230BDD3
:1030A00070B50C461546066A26F010060662816960
:1030B000026A21F4407141EA052121F470414FF484
:1030C000704606EA0336314322F0A002A02606EA43
:1030D000041632438161026270BD70B50C4615461C
:1030E000066A26F480760662C169026A21F003014D
:1030F000294321F0F001F02606EA0316314322F4B9
:1031000000724FF4007606EA04263243C16102627F
:1031100070BD70B50C461546066A26F480560662E8
:10312000C169026A21F4407141EA052121F470412C
:103130004FF4704606EA0336314322F400524FF44E
:10314000005606EA04363243C161026270BD70B5B2
:1031500005466C6A0020E085E0842046FFF7EFFA20
:1031600070BD0168C96821F490710268D16001687E
:10317000496921F0010102685161202180F83A106B
:10318000704710B504462068C06820F040002168F0
:10319000C860202084F839002046FFF775FC002025
:1031A00010BD70B5044694F83A00222847D1A068B3
:1031B000B0F5805F0CD1206950B90025A66A20685F
:1031C0004068C0F308003080A06A801CA06215E04F
:1031D000A56A0026A068B0F5805F03D0A06828B972
:1031E000206918B920684068287004E020684068A9
:1031F00000F07F002870A06A401CA062E08D401E95
:1032000080B2E085C8B92068C06820F0200021683D
:10321000C8602068C06820F480702168C860206899
:10322000406920F0010021684861202084F83A00BC
:103230002046FFF7BFFB002070BD0020FCE7022006
:10324000FAE7000070B504462168096921F440518D
:10325000E2681143226811612269A1681143626921
:1032600041EA02052168C96841F20C629143294391
:103270002268D1602168496921F44071A269114333
:10328000226851612D4A2168914202D1FEF776F9F8
:1032900001E0FEF763F900EBC00101EB0011626889
:1032A0009200B1FBF2F100EBC00202EB0012636886
:1032B0009B00B2FBF3F26423B2FBF3F202EBC20316
:1032C00003EB0212A1EB8201322202EB0111642214
:1032D000B1FBF2F101F0F00100EBC00202EB0012D1
:1032E00063689B00B2FBF3F26423B2FBF3F201EBE1
:1032F000021200EBC00101EB001163689B00B1FBFF
:10330000F3F100EBC00303EB00136668B600B3FBF8
:10331000F6F36426B3FBF6F303EBC30606EB0313E5
:10332000A1EB8301322303EB01116423B1FBF3F121
:1033300001F00F0111442268916070BD0038014016
:10334000014691F83900212828D18868B0F5805FBE
:103350000BD1086948B90A6A1088C0F308000B68E5
:103360005860086A801C086205E00B6A581C0862F5
:1033700018780B685860C88C401E80B2C88458B951
:103380000868C06820F080000B68D8600868C068D2
:1033900040F040000B68D860002070470220FCE736
:1033A0002DE9F04104460D4617469846069E21E059
:1033B000701CF8B12EB1FDF795FEA0EB0800B042ED
:1033C00018D92068C06820F4D0702168C8602068CF
:1033D000406920F0010021684861202084F839000C
:1033E00084F83A0000BF002084F8380000BF0320B2
:1033F000BDE8F081206800682840A84201D1012082
:1034000000E00020B842D3D00020F1E710B5024818
:10341000FFF796F910BD00009400002000BFFEE702
:103420000FB4084B10B504A902AA039800F038F8AD
:10343000044602A9002000F0D4F9204610BC5DF833
:1034400014FB0000E337000802480068C0F30220C4
:10345000704700000CED00E010B5002804DB0A07FF
:10346000130E054A135406E00A07140E034A00F02F
:103470000F031B1FD45410BD00E400E018ED00E062
:1034800002E008C8121F08C1002AFAD1704770472D
:10349000002001E001C1121F002AFBD1704700008B
:1034A0002DE9FF4F8BB088460546002606E025280B
:1034B0000BD0DDE90D1290476D1C761C2878002892
:1034C000F5D10FB03046BDE8F08F0024A146A246EA
:1034D0000122AE4900E0044315F8013F203B02FA07
:1034E00003F00842F7D128782A2810D06FF02F0275
:1034F0002878A0F13001092915D809EB890102EBE0
:10350000410144F0020400EB01096D1CF0E758F89A
:10351000041B5FEA010903D544F40054C9F1000912
:1035200044F002046D1C28782E2817D115F8010FDD
:1035300044F004042A280ED06FF02F022878A0F15E
:10354000300109290AD80AEB8A0102EB410100EB9C
:10355000010A6D1CF2E758F804AB6D1C28786C2842
:103560000FD006DC4C2817D068280DD06A2814D15B
:1035700004E0742810D07A280FD10DE044F4001430
:103580000AE044F4801401E044F440146978814274
:1035900002D104F580146D1C6D1C2878692865D053
:1035A00006DC00288DD0632827D0642806D15DE092
:1035B0006E2808D073282AD0752877D0DDE90D123F
:1035C0009047761CE0E0C4F30250022809D003289B
:1035D0000DD0D8F8001004280DD00E6008F10408B2
:1035E000D2E0D8F80010F217C1E90062F6E7D8F887
:1035F00000100E80F2E70E70F0E718F8041B8DF84B
:10360000001000208DF80100EB46012003E058F87F
:1036100004BB4FF0FF3061074FF0000701D40AE010
:103620007F1C57450DDA8742FADB1BF8071000298B
:10363000F6D106E07F1C8742FCDB1BF8071000294F
:10364000F8D1DDE90D23A9EB07008146214600F002
:10365000B1F83044C61904E0DDE90D121BF8010B86
:1036600090477F1EF8D22146484688E058F8040B60
:10367000C4F302514FF00A0B032900D100B2042910
:1036800000D140B2002802DA40422D2102E021059B
:1036900005D52B218DF82410012104E006E0E10777
:1036A00010D02021F6E708AF089113E058F8040B7A
:1036B000C4F302514FF00A0B032900D180B2042950
:1036C00000D1C0B20021EEE75946FCF7ABFE303125
:1036D00007F8011D0028F7D1ADEB070000F1200B22
:1036E000600702D524F4803401E04FF0010ADA4586
:1036F00002DDAAEB0B0000E00020824600EB0B018C
:1037000008980144A9EB01000A90E00306D4DDE922
:103710000D2321460A9800F04DF806444FF00009A9
:1037200008E009A911F80900DDE90D12904709F137
:103730000109761C08998945F3DBE0030CD5DDE926
:103740000D2321460A9800F035F8064404E0DDE92F
:103750000D1230209047761CBAF10001AAF1010A3F
:10376000F5DC05E0DDE90D1217F8010B9047761C3A
:10377000BBF10001ABF1010BF4DC0A982146DDE955
:103780000D2300F005F806446D1C97E6092801009A
:103790002DE9F041044600251E461746880404D44E
:1037A00005E039462020B0476D1C641EF9D5284637
:1037B000BDE8F0812DE9F041044600251E46904603
:1037C000C80301D5302700E02027880404D505E090
:1037D00041463846B0476D1C641EF9D52846BDE801
:1037E000F0810A68531C0B601070704700B50246E8
:1037F0005148006840F004004F49086002204E49DB
:10380000083108601020086020200860402008600F
:103810008020086000F040F94748006840F002004E
:1038200045490860C2F3001018B11020091D086056
:1038300004E04FF480104049091D0860C2F34010B5
:1038400020B120203C49091D086004E04FF400101D
:103850003949091D0860C2F3801020B14020364963
:10386000091D086004E04FF480003349091D086019
:10387000D00920B180203049091D086004E04FF4D0
:1038800000002D49091D086000F006F902202A49B0
:10389000083108601020086020200860402008607F
:1038A0008020086000F0F8F82348006840F002002B
:1038B0002149086002F0010018B11020091D0860BC
:1038C00004E04FF480101C49091D0860C2F3400059
:1038D00020B120201849091D086004E04FF40010B1
:1038E0001549091D0860C2F3800020B1402012492B
:1038F000091D086004E04FF480000F49091D0860AD
:10390000C2F3C00020B180200B49091D086004E00B
:103910004FF400000849091D086000F0BDF80220BE
:103920000549083108601020086020200860402008
:1039300008608020086000BD0C08014010B501201F
:1039400000F004F80220FDF723FA10BD00B502468E
:1039500004205049086002200860102008602020E0
:103960000860402008608020086000F095F8494811
:103970000838006840F00200464908390860C2F380
:10398000001018B11020091D086004E04FF48010E9
:103990004049091F0860C2F3401020B120203D4972
:1039A000091F086004E04FF400103A49091F08603D
:1039B000C2F3801020B140203649091F086004E09E
:1039C0004FF480003349091F0860D00920B18020DE
:1039D0003049091F086004E04FF400002D49091F19
:1039E000086000F059F802202A4908601020086099
:1039F00020200860402008608020086000F04CF81B
:103A000024480838006840F002002249083908605C
:103A100002F0010018B11020091D086004E04FF405
:103A200080101C49091F0860C2F3400020B120200B
:103A30001849091F086004E04FF400101549091FD8
:103A40000860C2F3800020B140201249091F0860BD
:103A500004E04FF480000F49091F0860C2F3C00062
:103A600020B180200B49091F086004E04FF40000DA
:103A70000849091F086000F00FF802200549086096
:103A80001020086020200860402008608020086026
:103A900000BD00001408014000B54FF47A70FCF737
:103AA00004FE00BD10B503460C46012B05D104F100
:103AB0007F01C8B2FFF74AFF06E0022B04D104F1F0
:103AC000BF01C8B2FFF742FF10BD70B504460D46F6
:103AD0001646FA20FDF75CF90220FFF737FF322087
:103AE000FDF756F944F02001294341EA0600FFF7AB
:103AF0002DFF3220FDF74CF90620FFF727FF32207B
:103B0000FDF746F90E20FFF721FF3220FDF740F9BF
:103B10000C20FFF71BFF3220FDF73AF90120FFF7D9
:103B200015FF6420FDF734F970BD00B5034605E0CC
:103B3000FFF7B2FF13F8010BFFF758FE18780028C3
:103B4000F6D1FFF7A9FF00BD70B505460E46144635
:103B500031462846FFF7A6FF2046FFF7E6FF70BD77
:103B6000A8B0FDF7D1FAFFF7ECF8FEF7BFFFFEF7BC
:103B70008FFFFFF707F8FFF7A9F800218948FEF744
:103B8000B3F904218748FEF71DFD08218548FEF79B
:103B900019FD082200210846FFF797FF82A20121A4
:103BA0000846FFF7D1FFFFF7C9FEFAE08448FCF7AB
:103BB000F9FF8448016884480068FCF729FC4DD26D
:103BC00082A101A8FFF72CFC0546681C82B24FF0C9
:103BD000FF3301A98548FEF7EEFE85A11BA8FFF77C
:103BE0001FFC04461BAA01210846FFF7ADFF7648DB
:103BF0000068FCF7C5FB0090FCF7B4FB81467248F7
:103C000001684846FCF707FB80467D49FCF706FB48
:103C10000746FCF7B5FB06466B480068FCF7B0FBAF
:103C2000834633465A4677A10EA8FFF7F9FB824632
:103C3000601C82B24FF0FF331BA96C48FEF7BBFE3D
:103C4000601C82B24FF0FF330EA96848FEF7B3FE46
:103C50000EAA01210220FFF777FFA2E06C4801685D
:103C600059480068FCF7D4FB4DD26AA101A8FFF7C0
:103C7000D7FB0546681C82B24FF0FF3301A95B48B1
:103C8000FEF799FE5AA11BA8FFF7CAFB04461BAA20
:103C900001210846FFF758FF4B480068FCF770FB0E
:103CA0008346FCF75FFB8146474801684846FCF7BE
:103CB000B2FA80465249FCF7B1FA0746FCF760FBBE
:103CC000064641480068FCF75BFB334602464DA1BF
:103CD00000900EA8FFF7A4FB8246601C82B24FF052
:103CE000FF331BA94148FEF766FE601C82B24FF00D
:103CF000FF330EA93D48FEF75EFE0EAA0121022009
:103D0000FFF722FF4DE04AA101A8FFF789FB054616
:103D1000681C82B24FF0FF3301A93448FEF74BFE16
:103D200033A11BA8FFF77CFB04461BAA0121084610
:103D3000FFF70AFF24480068FCF722FB8346FCF7E4
:103D400011FB8146204801684846FCF764FA80462A
:103D50002B49FCF763FA0746FCF712FB06461A48A4
:103D60000068FCF70DFB3346024626A100900EA822
:103D7000FFF756FB8246601C82B24FF0FF331BA94F
:103D80001A48FEF718FE601C82B24FF0FF330EA9EE
:103D90001648FEF710FE0EAA01210220FFF7D4FEFE
:103DA00000BF03E74C00002050726F6772616D2006
:103DB0005374617274696E672E2E2E2E00000000FF
:103DC0001C00002008000020000000200D0A554CB7
:103DD00054524120504F574552204D4F44452049A1
:103DE0004E495441495445440D0A000094000020B6
:103DF00054656D7065726174757265203D200000B8
:103E00000000C84225642E2530327520430D0A007B
:103E1000040000200D0A504F574552204D4F444595
:103E200020494E495441495445440D0A00000000C0
:103E30000D0A504F574552204D4F4445204F46469E
:103E40000D494445414C204D4F444520494E49546D
:103E500041495445440D0A000000000000000000E4
:103E60000102030406070809000000000102030420
:103E7000903E0008000000201C0000008034000874
:103E8000AC3E00081C000020BC0400009034000878
:103E9000000000000000D8410000104200000000B7
:0C3EA00010000000010000000024F400ED
:04000005080000ED02
:00000001FF
